{
  "contractName": "EggFactory",
  "abi": [
    {
      "constant": true,
      "inputs": [
        {
          "name": "",
          "type": "address"
        },
        {
          "name": "",
          "type": "uint256"
        }
      ],
      "name": "eggsOwned",
      "outputs": [
        {
          "name": "",
          "type": "uint256"
        }
      ],
      "payable": false,
      "stateMutability": "view",
      "type": "function"
    },
    {
      "constant": true,
      "inputs": [
        {
          "name": "",
          "type": "uint256"
        }
      ],
      "name": "eggs",
      "outputs": [
        {
          "name": "id",
          "type": "uint256"
        },
        {
          "name": "max",
          "type": "uint256"
        },
        {
          "name": "buy",
          "type": "uint256"
        },
        {
          "name": "customGene",
          "type": "uint256"
        },
        {
          "name": "increase",
          "type": "uint256"
        },
        {
          "name": "price",
          "type": "uint256"
        },
        {
          "name": "active",
          "type": "bool"
        },
        {
          "name": "open",
          "type": "bool"
        },
        {
          "name": "isEggScheme",
          "type": "bool"
        }
      ],
      "payable": false,
      "stateMutability": "view",
      "type": "function"
    },
    {
      "inputs": [],
      "payable": false,
      "stateMutability": "nonpayable",
      "type": "constructor"
    },
    {
      "anonymous": false,
      "inputs": [
        {
          "indexed": false,
          "name": "beastId",
          "type": "uint256"
        }
      ],
      "name": "EggOpened",
      "type": "event"
    },
    {
      "constant": false,
      "inputs": [
        {
          "name": "_eggId",
          "type": "uint256"
        },
        {
          "name": "_max",
          "type": "uint256"
        },
        {
          "name": "_customGene",
          "type": "uint256"
        },
        {
          "name": "_price",
          "type": "uint256"
        },
        {
          "name": "_increase",
          "type": "uint256"
        },
        {
          "name": "_active",
          "type": "bool"
        },
        {
          "name": "_open",
          "type": "bool"
        }
      ],
      "name": "createEggScheme",
      "outputs": [],
      "payable": false,
      "stateMutability": "nonpayable",
      "type": "function"
    },
    {
      "constant": false,
      "inputs": [
        {
          "name": "_eggId",
          "type": "uint256"
        },
        {
          "name": "state",
          "type": "bool"
        }
      ],
      "name": "setActiveStatusEgg",
      "outputs": [],
      "payable": false,
      "stateMutability": "nonpayable",
      "type": "function"
    },
    {
      "constant": false,
      "inputs": [
        {
          "name": "_eggId",
          "type": "uint256"
        },
        {
          "name": "state",
          "type": "bool"
        }
      ],
      "name": "setOpenStatusEgg",
      "outputs": [],
      "payable": false,
      "stateMutability": "nonpayable",
      "type": "function"
    },
    {
      "constant": false,
      "inputs": [
        {
          "name": "_eggId",
          "type": "uint256"
        },
        {
          "name": "_amount",
          "type": "uint256"
        }
      ],
      "name": "buyEgg",
      "outputs": [],
      "payable": true,
      "stateMutability": "payable",
      "type": "function"
    },
    {
      "constant": true,
      "inputs": [
        {
          "name": "_eggId",
          "type": "uint256"
        }
      ],
      "name": "currentEggPrice",
      "outputs": [
        {
          "name": "",
          "type": "uint256"
        }
      ],
      "payable": false,
      "stateMutability": "view",
      "type": "function"
    },
    {
      "constant": false,
      "inputs": [
        {
          "name": "_eggId",
          "type": "uint256"
        },
        {
          "name": "_amount",
          "type": "uint256"
        }
      ],
      "name": "openEgg",
      "outputs": [],
      "payable": false,
      "stateMutability": "nonpayable",
      "type": "function"
    }
  ],
  "bytecode": "0x608060405234801561001057600080fd5b50336000806101000a81548173ffffffffffffffffffffffffffffffffffffffff021916908373ffffffffffffffffffffffffffffffffffffffff1602179055506107a1806100606000396000f30060806040526004361061008e576000357c0100000000000000000000000000000000000000000000000000000000900463ffffffff16806327a1f35a146100935780632a3966ff146100cc57806334758cb3146101055780635333ee4d1461014657806392c56f5014610170578063a5007da7146101dd578063ab00d08614610214578063bb654efa14610275575b600080fd5b34801561009f57600080fd5b506100ca600480360381019080803590602001909291908035151590602001909291905050506102fa565b005b3480156100d857600080fd5b506101036004803603810190808035906020019092919080351515906020019092919050505061032c565b005b34801561011157600080fd5b506101306004803603810190808035906020019092919050505061035e565b6040518082815260200191505060405180910390f35b61016e60048036038101908080359060200190929190803590602001909291905050506103ae565b005b34801561017c57600080fd5b506101db6004803603810190808035906020019092919080359060200190929190803590602001909291908035906020019092919080359060200190929190803515159060200190929190803515159060200190929190505050610482565b005b3480156101e957600080fd5b5061021260048036038101908080359060200190929190803590602001909291905050506105e4565b005b34801561022057600080fd5b5061025f600480360381019080803573ffffffffffffffffffffffffffffffffffffffff169060200190929190803590602001909291905050506106db565b6040518082815260200191505060405180910390f35b34801561028157600080fd5b506102a060048036038101908080359060200190929190505050610700565b604051808a8152602001898152602001888152602001878152602001868152602001858152602001841515151581526020018315151515815260200182151515158152602001995050505050505050505060405180910390f35b806001600084815260200190815260200160002060060160016101000a81548160ff0219169083151502179055505050565b806001600084815260200190815260200160002060060160006101000a81548160ff0219169083151502179055505050565b600060016000838152602001908152602001600020600401546001600084815260200190815260200160002060020154026001600084815260200190815260200160002060050154019050919050565b600115156001600084815260200190815260200160002060060160009054906101000a900460ff1615151415156103e457600080fd5b34816103ef8461035e565b021415156103fc57600080fd5b80600160008481526020019081526020016000206002016000828254019250508190555080600360003373ffffffffffffffffffffffffffffffffffffffff1673ffffffffffffffffffffffffffffffffffffffff1681526020019081526020016000206000848152602001908152602001600020600082825401925050819055505050565b600180600089815260200190815260200160002060060160026101000a81548160ff02191690831515021790555086600160008981526020019081526020016000206000018190555085600160008981526020019081526020016000206001018190555060006001600089815260200190815260200160002060020181905550846001600089815260200190815260200160002060030181905550836001600089815260200190815260200160002060050181905550826001600089815260200190815260200160002060040181905550816001600089815260200190815260200160002060060160006101000a81548160ff021916908315150217905550806001600089815260200190815260200160002060060160016101000a81548160ff021916908315150217905550600287908060018154018082558091505090600182039060005260206000200160009091929091909150555050505050505050565b600115156001600084815260200190815260200160002060060160019054906101000a900460ff16151514151561061a57600080fd5b80600360003373ffffffffffffffffffffffffffffffffffffffff1673ffffffffffffffffffffffffffffffffffffffff1681526020019081526020016000206000848152602001908152602001600020541015151561067957600080fd5b80600360003373ffffffffffffffffffffffffffffffffffffffff1673ffffffffffffffffffffffffffffffffffffffff1681526020019081526020016000206000848152602001908152602001600020600082825403925050819055505050565b6003602052816000526040600020602052806000526040600020600091509150505481565b60016020528060005260406000206000915090508060000154908060010154908060020154908060030154908060040154908060050154908060060160009054906101000a900460ff16908060060160019054906101000a900460ff16908060060160029054906101000a900460ff169050895600a165627a7a723058202be0f30a69f93c24a1dab347eacd69309debfd81d64d1dc778e17201ca6689860029",
  "source": "pragma solidity ^0.4.18;\n\nimport \"openzeppelin-solidity/contracts/payment/SplitPayment.sol\";\n\ncontract EggFactory {\n    \n    event EggOpened(uint256 beastId);\n    \n    struct EggScheme{\n        uint256 id;\n        uint256 max; // max available eggs. zero for unlimited\n        uint256 buy; // purchased eggs\n        uint256 customGene; // custom gene for future beast\n        \n        uint256 increase; // price increase. zero for no increase\n        uint256 price; // base price of the egg\n        \n        bool active; // is the egg active to be bought\n        bool open; // is the egg active to be opened \n        bool isEggScheme;\n    }\n    \n    address private owner;\n\n    function EggFactory() public {\n        owner = msg.sender;\n    }\n\n    // Mapping of existing eggs \n    // @dev: uint256 is the ID of the egg scheme\n    mapping (uint256 => EggScheme) public eggs;\n    uint256[] eggsIndexes;\n    \n    // Mapping of eggs owned by an address\n    // @dev: owner => ( eggId => eggsAmount )\n    mapping ( address => mapping ( uint256 => uint256 ) ) public eggsOwned;\n    \n    // Add modifier of onlyCOO\n    function createEggScheme( uint256 _eggId, uint256 _max, uint256 _customGene, uint256 _price, uint256 _increase, bool _active, bool _open ) public {\n        eggs[_eggId].isEggScheme = true;\n        \n        eggs[_eggId].id = _eggId;\n        eggs[_eggId].max = _max;\n        eggs[_eggId].buy = 0;\n        eggs[_eggId].customGene = _customGene;\n        eggs[_eggId].price = _price;\n        eggs[_eggId].increase = _increase;\n        \n        eggs[_eggId].active = _active;\n        eggs[_eggId].open = _open;\n        \n        eggsIndexes.push(_eggId);\n    }\n    \n    // Add modifier onlyCOO\n    function setActiveStatusEgg( uint256 _eggId, bool state ) public {\n        eggs[_eggId].active = state;\n    }\n    \n    // Add modifier onlyCOO\n    function setOpenStatusEgg( uint256 _eggId, bool state ) public {\n        eggs[_eggId].open = state;\n    }\n    \n    function buyEgg(uint256 _eggId, uint256 _amount) public payable {\n        require(eggs[_eggId].active == true);\n        require((currentEggPrice(_eggId)*_amount) == msg.value);\n        \n        eggs[_eggId].buy += _amount;\n        eggsOwned[msg.sender][_eggId] += _amount;\n    } \n    \n    function currentEggPrice( uint256 _eggId ) public view returns (uint256) {\n        return eggs[_eggId].price + (eggs[_eggId].buy * eggs[_eggId].increase);\n    }\n    \n    function openEgg(uint256 _eggId, uint256 _amount) public {\n        require(eggs[_eggId].open == true);\n        require(eggsOwned[msg.sender][_eggId] >= _amount);\n        \n        // Give to geneMagic the custom genes of the egg for the beast definition\n        //uint256 randomGens = random(1000000000000000);\n        //uint256 beastId = _createBeast(0, 0, 0, randomGens, msg.sender);\n\n        eggsOwned[msg.sender][_eggId] -= _amount;\n\n        //emit EggOpened(beastId);\n    }\n}",
  "sourcePath": "/Users/jonathanaraneda/BlockchainProjects/eggs/contracts/EggFactory.sol",
  "compiler": {
    "name": "solc",
    "version": "0.4.23+commit.124ca40d.Emscripten.clang"
  },
  "schemaVersion": "2.0.0",
  "updatedAt": "2018-05-15T10:45:07.339Z"
}